:020000040800F2
:1000000000280020516E0008F56D0008FB6D000807
:10001000016E0008076E00080D6E00080000000069
:10002000000000000000000000000000136E000847
:100030001F6E0008000000002B6E0008376E0008DD
:10004000996E0008996E0008996E0008996E000874
:10005000996E0008996E0008996E0008996E000864
:10006000996E0008996E0008996E0008996E000854
:10007000996E0008996E0008996E0008996E000844
:10008000996E0008996E0008996E0008996E000834
:10009000996E0008996E0008996E0008996E000824
:1000A000996E0008996E0008996E0008996E000814
:1000B000996E0008996E000800000000996E000813
:1000C000996E00080000000000000000996E000812
:1000D00000000000996E0008996E00080000000002
:1000E000996E0008996E0008996E000800000000E3
:1000F0000000000000000000000000000000000000
:0C01000000000000000000005FF808F1A3
:10010C0010B5054C237833B9044B13B10448AFF345
:10011C0000800123237010BD0C00002000000000A3
:10012C00747C000808B5034B1BB103490348AFF3BB
:10013C00008008BD0000000010000020747C000846
:10014C0080B58EB000AF00237B6340E006F024FD49
:10015C00012006F05FFD06F01FFD012006F05AFDA0
:10016C0006F01AFD01224021BB4807F051F900228C
:10017C004FF40071B84807F04BF901224FF480613D
:10018C00B54807F045F901224FF40061B24807F079
:10019C003FF901224FF48051AF4807F039F90122A1
:1001AC004FF40051AC4807F033F9012006F032FD52
:1001BC0006F0F2FC012006F02DFD06F0EDFC01200E
:1001CC0006F028FD06F0E8FC7B6B01337B637B6B50
:1001DC00952BBBDD00233B6363E006F0DDFC0120C7
:1001EC0006F018FD06F0D8FC012006F013FD06F011
:1001FC00D3FC01224021984807F00AF900224FF461
:10020C000071954807F004F901224FF4806192487F
:10021C0007F0FEF801224FF400618F4807F0F8F860
:10022C0001224FF480518C4807F0F2F801224FF470
:10023C000051894807F0ECF8012006F0EBFC06F0C1
:10024C00ABFC01228021844807F0E2F800224FF435
:10025C000071814807F0DCF801224FF480617E4880
:10026C0007F0D6F801224FF400617B4807F0D0F874
:10027C0001224FF48051784807F0CAF801224FF45C
:10028C000051754807F0C4F8012006F0C3FC06F0D5
:10029C0083FC012006F0BEFC06F07EFC3B6B0133B8
:1002AC003B633B6B952B98DD0023FB6262E00120E6
:1002BC0006F0B0FC06F070FC012006F0ABFC06F07A
:1002CC006BFC01224021644807F0A2F800224FF495
:1002DC000071614807F09CF801224FF480615E4880
:1002EC0007F096F801224FF400615B4807F090F894
:1002FC0001224FF48051584807F08AF801224FF43C
:10030C000051554807F084F8012006F083FC06F0F4
:10031C0043FC012006F07EFC06F03EFC01224FF46B
:10032C0080714D4807F074F801224FF400714A486F
:10033C0007F06EF800224FF48061474807F068F828
:10034C0001224FF40061444807F062F801224FF497
:10035C008051414807F05CF801224FF400513E48AF
:10036C0007F056F8012006F055FC06F015FCFB6A68
:10037C000133FB62FB6A952B99DD0023BB6264E0C1
:10038C0006F00AFC012006F045FC06F005FC0120F5
:10039C0006F040FC06F000FC012240212E4807F03C
:1003AC0037F800224FF400712B4807F031F8012286
:1003BC004FF48061284807F02BF801224FF40061BC
:1003CC00254807F025F801224FF48051224807F008
:1003DC001FF801224FF400511F4807F019F80120B3
:1003EC0006F018FC06F0D8FB012006F013FC06F012
:1003FC00D3FB01224FF48071174807F009F8012252
:10040C004FF40071144807F003F801224FF4806197
:10041C00114806F0FDFF00224FF400610E4806F073
:10042C00F7FF01224FF480510B4806F0F1FF012237
:10043C004FF40051084806F0EBFF012006F0EAFBF0
:10044C0006F0AAFBBB6A0133BB62BB6A952B97DD36
:10045C0000237B6267E000BF0008014006F09CFBB4
:10046C00012006F0D7FB06F097FB012006F0D2FB2B
:10047C0006F092FB01224021BB4806F0C9FF002286
:10048C004FF40071B84806F0C3FF01224FF48061AD
:10049C00B54806F0BDFF01224FF40061B24806F0EA
:1004AC00B7FF01224FF48051AF4806F0B1FF012293
:1004BC004FF40051AC4806F0ABFF012006F0AAFB4C
:1004CC0006F06AFB012006F0A5FB06F065FB012295
:1004DC004FF48071A44806F09BFF01224FF4007189
:1004EC00A14806F095FF01224FF480619E4806F06A
:1004FC008FFF01224FF400619B4806F089FF002218
:10050C004FF48051984806F083FF01224FF40051BC
:10051C00954806F07DFF012006F07CFB06F03CFBC5
:10052C007B6A01337B627B6A952B97DD00233B62F0
:10053C0063E006F031FB012006F06CFB06F02CFBAF
:10054C00012006F067FB06F027FB012240218648BC
:10055C0006F05EFF00224FF40071834806F058FF4E
:10056C0001224FF48061804806F052FF01224FF4C3
:10057C0000617D4806F04CFF01224FF480517A480F
:10058C0006F046FF01224FF40051774806F040FF79
:10059C00012006F03FFB06F0FFFA01228021724891
:1005AC0006F036FF01224FF400716F4806F030FF61
:1005BC0001224FF480616C4806F02AFF01224FF4AF
:1005CC000061694806F024FF01224FF4805166480F
:1005DC0006F01EFF00224FF40051634806F018FF8E
:1005EC00012006F017FB06F0D7FA012006F012FBEB
:1005FC0006F0D2FA3B6A01333B623B6A952B98DDDD
:10060C000023FB6140E006F0C7FA012006F002FB74
:10061C0006F0C2FA012006F0FDFA06F0BDFA01223E
:10062C004021514806F0F4FE00224FF400714E4870
:10063C0006F0EEFE01224FF480614B4806F0E8FE16
:10064C0001224FF40061484806F0E2FE01224FF40B
:10065C008051454806F0DCFE00224FF40051424820
:10066C0006F0D6FE012006F0D5FA06F095FA012028
:10067C0006F0D0FA06F090FA012006F0CBFA06F05C
:10068C008BFAFB690133FB61FB69952BBBDD002306
:10069C00BB6163E006F080FA012006F0BBFA06F0BD
:1006AC007BFA01222021304806F0B2FE01224FF4E1
:1006BC0000712D4806F0ACFE01224FF480612A48EF
:1006CC0006F0A6FE01224FF40061274806F0A0FEBA
:1006DC0001224FF48051244806F09AFE00224FF478
:1006EC000051214806F094FE012006F093FA06F022
:1006FC0053FA012240211C4806F08AFE00224FF4D6
:10070C000071194806F084FE01224FF480611648EE
:10071C0006F07EFE01224FF40061134806F078FECD
:10072C0001224FF48051104806F072FE01224FF462
:10073C0000510D4806F06CFE012006F06BFA06F035
:10074C002BFA012006F066FA06F026FA012006F0D4
:10075C0061FA06F021FABB690133BB61BB69952BC9
:10076C0098DD00237B6165E00008014006F014FA77
:10077C0001221021D74806F04BFE01224FF40071E4
:10078C00D44806F045FE01224FF48061D14806F0B2
:10079C003FFE01224FF40061CE4806F039FE0022E4
:1007AC004FF48051CB4806F033FE01224FF4005138
:1007BC00C84806F02DFE012006F02CFA06F0ECF9E4
:1007CC00012006F027FA06F0E7F901224021C14882
:1007DC0006F01EFE00224FF40071BE4806F018FE13
:1007EC0001224FF48061BB4806F012FE01224FF447
:1007FC000061B84806F00CFE01224FF48051B54858
:10080C0006F006FE01224FF40051B24806F000FE3D
:10081C00012006F0FFF906F0BFF9012006F0FAF905
:10082C0006F0BAF9012006F0F5F906F0B5F97B6986
:10083C0001337B617B69952B98DD00233B6163E081
:10084C0006F0AAF901221021A24806F0E1FD0122CE
:10085C004FF400719F4806F0DBFD01224FF48061DC
:10086C009C4806F0D5FD00224FF40061994806F033
:10087C00CFFD01224FF48051964806F0C9FD0122AC
:10088C004FF40051934806F0C3FD012006F0C2F965
:10089C0006F082F9012006F0BDF906F07DF901227F
:1008AC0040218C4806F0B4FD00224FF400718948B9
:1008BC0006F0AEFD01224FF48061864806F0A8FDDB
:1008CC0001224FF40061834806F0A2FD01224FF48F
:1008DC008051804806F09CFD01224FF400517D4868
:1008EC0006F096FD012006F095F906F055F9012069
:1008FC0006F090F906F050F9012006F08BF906F09D
:10090C004BF93B6901333B613B69952B98DD002327
:10091C00FB6063E006F040F9012210216D4806F0FF
:10092C0077FD01224FF400716A4806F071FD002238
:10093C004FF48061674806F06BFD01224FF40061B3
:10094C00644806F065FD01224FF48051614806F0C1
:10095C005FFD01224FF400515E4806F059FD012065
:10096C0006F058F906F018F9012006F053F906F0D4
:10097C0013F901224021574806F04AFD00224FF49A
:10098C000071544806F044FD01224FF48061514837
:10099C0006F03EFD01224FF400614E4806F038FD92
:1009AC0001224FF480514B4806F032FD01224FF4E6
:1009BC000051484806F02CFD012006F02BF906F0FA
:1009CC00EBF8012006F026F906F0E6F8012006F017
:1009DC0021F906F0E1F8FB680133FB60FB68952B0D
:1009EC0098DD0023BB6063E006F0D6F8012006F02A
:1009FC0011F906F0D1F801222021364806F008FD45
:100A0C0000224FF40071334806F002FD01224FF42E
:100A1C008061304806F0FCFC01224FF400612D4847
:100A2C0006F0F6FC01224FF480512A4806F0F0FC47
:100A3C0001224FF40051274806F0EAFC012006F091
:100A4C00E9F806F0A9F801224021224806F0E0FC62
:100A5C0000224FF400711F4806F0DAFC01224FF41B
:100A6C0080611C4806F0D4FC01224FF40061194847
:100A7C0006F0CEFC01224FF48051164806F0C8FC5B
:100A8C0001224FF40051134806F0C2FC012006F07D
:100A9C00C1F806F081F8012006F0BCF806F07CF8ED
:100AAC00012006F0B7F806F077F8BB680133BB609D
:100ABC00BB68952B98DD00237B6002E07B680133DB
:100ACC007B607B68952BF9DD00BF00BF3837BD46D6
:100ADC0080BD00BF0008014080B58EB000AF002380
:100AEC007B6363E006F058F8012006F093F806F0FB
:100AFC0053F8012006F08EF806F04EF80122402142
:100B0C00AA4806F085FC00224FF40071A74806F0B5
:100B1C007FFC01224FF48061A44806F079FC01228D
:100B2C004FF40061A14806F073FC01224FF4805190
:100B3C009E4806F06DFC01224FF400519B4806F0D4
:100B4C0067FC012006F066F806F026F801228021E9
:100B5C00964806F05DFC00224FF40071934806F0B5
:100B6C0057FC01224FF48061904806F051FC0122A1
:100B7C004FF400618D4806F04BFC01224FF480517C
:100B8C008A4806F045FC01224FF40051874806F0D4
:100B9C003FFC012006F03EF805F0FEFF012006F0B8
:100BAC0039F805F0F9FF7B6B01337B637B6B952B7D
:100BBC0098DD00233B6363E005F0EEFF012006F0B7
:100BCC0029F805F0E9FF012006F024F805F0E4FF10
:100BDC0001224021754806F01BFC00224FF40071E5
:100BEC00724806F015FC01224FF480616F4806F044
:100BFC000FFC01224FF400616C4806F009FC012245
:100C0C004FF48051694806F003FC01224FF4005167
:100C1C00664806F0FDFB012005F0FCFF05F0BCFF6B
:100C2C0001228021614806F0F3FB00224FF4007191
:100C3C005E4806F0EDFB01224FF480615B4806F044
:100C4C00E7FB01224FF40061584806F0E1FB01225A
:100C5C004FF48051554806F0DBFB01224FF4005154
:100C6C00524806F0D5FB012005F0D4FF05F094FFA7
:100C7C00012005F0CFFF05F08FFF3B6B01333B6389
:100C8C003B6B952B98DD0023FB6287E005F084FF1E
:100C9C00012005F0BFFF05F07FFF012005F0BAFF32
:100CAC0005F07AFF01224021404806F0B1FB0022FA
:100CBC004FF400713D4806F0ABFB01224FF480610C
:100CCC003A4806F0A5FB01224FF40061374806F0C4
:100CDC009FFB01224FF48051344806F099FB01220E
:100CEC004FF40051314806F093FB012005F092FFC0
:100CFC0005F052FF012280212C4806F089FB0022CE
:100D0C004FF40071294806F083FB01224FF48061F7
:100D1C00264806F07DFB01224FF40061234806F0C3
:100D2C0077FB01224FF48051204806F071FB012221
:100D3C004FF400511D4806F06BFB012005F06AFFD3
:100D4C0005F02AFF01224FF48071184806F060FB71
:100D5C0001224FF40071154806F05AFB00224FF4A3
:100D6C008061124806F054FB01224FF400610F48D9
:100D7C0006F04EFB01224FF480510C4806F048FB64
:100D8C0001224FF40051094806F042FB012005F006
:100D9C0041FF05F001FFFB6A0133FB62FB6A952BF7
:100DAC007FF774AF0023BB628AE000BF00080140EC
:100DBC0005F0F2FE012005F02DFF05F0EDFE0120FF
:100DCC0005F028FF05F0E8FE01224021BC4806F0A2
:100DDC001FFB00224FF40071B94806F019FB0122E9
:100DEC004FF48061B64806F013FB01224FF400610A
:100DFC00B34806F00DFB01224FF48051B04806F0C9
:100E0C0007FB01224FF40051AD4806F001FB012015
:100E1C0005F000FF05F0C0FE01228021A84806F075
:100E2C00F7FA00224FF40071A54806F0F1FA0122FE
:100E3C004FF48061A24806F0EBFA01224FF40061F6
:100E4C009F4806F0E5FA01224FF480519C4806F0C9
:100E5C00DFFA01224FF40051994806F0D9FA01202B
:100E6C0005F0D8FE05F098FE01224FF480719448ED
:100E7C0006F0CEFA01224FF40071914806F0C8FA40
:100E8C0001224FF480618E4806F0C2FA00224FF422
:100E9C0000618B4806F0BCFA01224FF4805188485F
:100EAC0006F0B6FA01224FF40051854806F0B0FA6C
:100EBC00012005F0AFFE05F06FFEBB6A0133BB628B
:100ECC00BB6A952B7FF774AF00237B6287E005F03C
:100EDC0063FE012005F09EFE05F05EFE012005F08C
:100EEC0099FE05F059FE01224021754806F090FA52
:100EFC0000224FF40071724806F08AFA01224FF476
:100F0C0080616F4806F084FA01224FF400616C484E
:100F1C0006F07EFA01224FF48051694806F078FA07
:100F2C0001224FF40051664806F072FA012005F0D8
:100F3C0071FE05F031FE01228021614806F068FA4D
:100F4C0000224FF400715E4806F062FA01224FF461
:100F5C0080615B4806F05CFA01224FF4006158484E
:100F6C0006F056FA01224FF48051554806F050FA1B
:100F7C0001224FF40051524806F04AFA012005F0C4
:100F8C0049FE05F009FE01224FF480714C4806F031
:100F9C003FFA01224FF40071494806F039FA012258
:100FAC004FF48061464806F033FA01224FF4006199
:100FBC00434806F02DFA00224FF48051404806F0C9
:100FCC0027FA01224FF400513D4806F021FA012086
:100FDC0005F020FE05F0E0FD7B6A01337B627B6A45
:100FEC00952B7FF774AF00233B6263E005F0D4FDD3
:100FFC00012005F00FFE05F0CFFD012005F00AFEE3
:10100C0005F0CAFD012240212D4806F001FA00220C
:10101C004FF400712A4806F0FBF901224FF480616D
:10102C00274806F0F5F901224FF40061244806F038
:10103C00EFF901224FF48051214806F0E9F9012221
:10104C004FF400511E4806F0E3F9012005F0E2FDD3
:10105C0005F0A2FD01228021194806F0D9F90022E1
:10106C004FF40071164806F0D3F901224FF4806159
:10107C00134806F0CDF901224FF40061104806F038
:10108C00C7F901224FF480510D4806F0C1F9002236
:10109C004FF400510A4806F0BBF9012005F0BAFDE7
:1010AC0005F07AFD012005F0B5FD05F075FD3B6AF4
:1010BC0001333B623B6A952B98DD0023FB6165E0B5
:1010CC000008014005F068FD012005F0A3FD05F0C6
:1010DC0063FD012005F09EFD05F05EFD012240211F
:1010EC00BB4806F095F900224FF40071B84806F0A1
:1010FC008FF901224FF48061B54806F089F901227D
:10110C004FF40061B24806F083F901224FF480518C
:10111C00AF4806F07DF900224FF40051AC4806F0C0
:10112C0077F9012005F076FD05F036FD01228021CE
:10113C00A74806F06DF900224FF40071A44806F0A0
:10114C0067F901224FF48061A14806F061F9012290
:10115C004FF400619E4806F05BF901224FF4805178
:10116C009B4806F055F901224FF40051984806F0BF
:10117C004FF9012005F04EFD05F00EFD012005F0A4
:10118C0049FD05F009FDFB690133FB61FB69952BFA
:10119C0098DD0023BB6186E005F0FEFC012005F024
:1011AC0039FD05F0F9FC01222021894806F030F9BF
:1011BC0001224FF40071864806F02AF901224FF4FF
:1011CC008061834806F024F901224FF400618048C5
:1011DC0006F01EF901224FF480517D4806F018F9F3
:1011EC0000224FF400517A4806F012F9012005F064
:1011FC0011FD05F0D1FC01224021754806F008F9DB
:10120C0000224FF40071724806F002F901224FF4EB
:10121C0080616F4806F0FCF801224FF400616C48C5
:10122C0006F0F6F801224FF48051694806F0F0F808
:10123C0001224FF40051664806F0EAF8012005F04F
:10124C00E9FC05F0A9FC01228021614806F0E0F8D8
:10125C0000224FF400715E4806F0DAF801224FF4D8
:10126C0080615B4806F0D4F801224FF400615848C5
:10127C0006F0CEF801224FF48051554806F0C8F81C
:10128C0001224FF40051524806F0C2F8012005F03B
:10129C00C1FC05F081FC012005F0BCFC05F07CFCD8
:1012AC00BB690133BB61BB69952B7FF775AF00231D
:1012BC007B6186E005F070FC01221021444806F0A9
:1012CC00A7F801224FF40071414806F0A1F8012261
:1012DC004FF480613E4806F09BF801224FF4006108
:1012EC003B4806F095F800224FF48051384806F040
:1012FC008FF801224FF40051354806F089F801208F
:10130C0005F088FC05F048FC012005F083FC05F095
:10131C0043FC012240212E4806F07AF800224FF4BB
:10132C0000712B4806F074F801224FF480612848B4
:10133C0006F06EF801224FF40061254806F068F8BB
:10134C0001224FF48051224806F062F801224FF43A
:10135C0000511F4806F05CF8012005F05BFC05F01D
:10136C001BFC012280211A4806F052F800224FF48F
:10137C000071174806F04CF801224FF480611448B4
:10138C0006F046F801224FF40061114806F040F8CF
:10139C0001224FF480510E4806F03AF801224FF426
:1013AC0000510B4806F034F8012005F033FC05F031
:1013BC00F3FB012005F02EFC05F0EEFB7B690133FD
:1013CC007B617B69952B7FF775AF00233B6188E0D0
:1013DC000008014005F0E0FB01221021D84806F07E
:1013EC0017F801224FF40071D54806F011F80122CC
:1013FC004FF48061D24806F00BF800224FF40061E4
:10140C00CF4806F005F801224FF48051CC4805F086
:10141C00FFFF01224FF40051C94805F0F9FF0120EC
:10142C0005F0F8FB05F0B8FB012005F0F3FB05F027
:10143C00B3FB01224021C24805F0EAFF00224FF421
:10144C000071BF4805F0E4FF01224FF48061BC48F5
:10145C0005F0DEFF01224FF40061B94805F0D8FF1A
:10146C0001224FF48051B64805F0D2FF01224FF40F
:10147C000051B34805F0CCFF012005F0CBFB05F083
:10148C008BFB01228021AE4805F0C2FF00224FF4F5
:10149C000071AB4805F0BCFF01224FF48061A848F5
:1014AC0005F0B6FF01224FF40061A54805F0B0FF2E
:1014BC0001224FF48051A24805F0AAFF01224FF4FB
:1014CC0000519F4805F0A4FF012005F0A3FB05F097
:1014DC0063FB012005F09EFB05F05EFB3B690133CD
:1014EC003B613B69952B7FF775AF0023FB6086E072
:1014FC0005F052FB01221021914805F089FF0122D1
:10150C004FF400718E4805F083FF00224FF4806188
:10151C008B4805F07DFF01224FF40061884805F0EF
:10152C0077FF01224FF48051854805F071FF0122AD
:10153C004FF40051824805F06BFF012005F06AFB67
:10154C0005F02AFB012005F065FB05F025FB0122C7
:10155C0040217B4805F05CFF00224FF40071784875
:10156C0005F056FF01224FF48061754805F050FFDD
:10157C0001224FF40061724805F04AFF01224FF43A
:10158C0080516F4805F044FF01224FF400516C4824
:10159C0005F03EFF012005F03DFB05F0FDFA0122B0
:1015AC008021674805F034FF00224FF40071644835
:1015BC0005F02EFF01224FF48061614805F028FFF1
:1015CC0001224FF400615E4805F022FF01224FF426
:1015DC0080515B4805F01CFF01224FF40051584824
:1015EC0005F016FF012005F015FB05F0D5FA0120DA
:1015FC0005F010FB05F0D0FAFB680133FB60FB68CB
:10160C00952B7FF775AF0023BB6086E005F0C4FA1D
:10161C00012005F0FFFA05F0BFFA0122202148480D
:10162C0005F0F6FE00224FF40071454805F0F0FE7F
:10163C0001224FF48061424805F0EAFE01224FF48A
:10164C0000613F4805F0E4FE01224FF480513C4814
:10165C0005F0DEFE01224FF40051394805F0D8FEAA
:10166C00012005F0D7FA05F097FA01224021344801
:10167C0005F0CEFE00224FF40071314805F0C8FE93
:10168C0001224FF480612E4805F0C2FE01224FF476
:10169C0000612B4805F0BCFE01224FF48051284814
:1016AC0005F0B6FE01224FF40051254805F0B0FEBE
:1016BC00012005F0AFFA05F06FFA012280212048D5
:1016CC0005F0A6FE00224FF400711D4805F0A0FEA7
:1016DC0001224FF480611A4805F09AFE01224FF462
:1016EC000061174805F094FE01224FF48051144814
:1016FC0005F08EFE01224FF40051114805F088FED2
:10170C00012005F087FA05F047FA012005F082FA6E
:10171C0005F042FABB680133BB60BB68952B7FF7C1
:10172C0075AF00237B6002E07B6801337B607B68D4
:10173C00952BF9DD00BF00BF3837BD4680BD00BF1B
:10174C000008014080B58EB000AF00237B6364E0DD
:10175C0005F022FA012005F05DFA05F01DFA0120D2
:10176C0005F058FA05F018FA01224021AB4805F0B3
:10177C004FFE00224FF40071A84805F049FE0122EB
:10178C004FF48061A54805F043FE01224FF400613F
:10179C00A24805F03DFE01224FF480519F4805F010
:1017AC0037FE01224FF400519C4805F031FE012018
:1017BC0005F030FA05F0F0F9012005F02BFA05F0F0
:1017CC00EBF901224FF48071944805F021FE0122BF
:1017DC004FF40071914805F01BFE00224FF480611C
:1017EC008E4805F015FE01224FF400618B4805F080
:1017FC000FFE01224FF48051884805F009FE0122AA
:10180C004FF40051854805F003FE012005F002FA63
:10181C0005F0C2F97B6B01337B637B6B952B97DDFA
:10182C0000233B6387E005F0B7F9012005F0F2F9DE
:10183C0005F0B2F9012005F0EDF905F0ADF9012242
:10184C004021764805F0E4FD00224FF40071734806
:10185C0005F0DEFD01224FF48061704805F0D8FDE3
:10186C0001224FF400616D4805F0D2FD01224FF4C6
:10187C0080516A4805F0CCFD01224FF400516748B5
:10188C0005F0C6FD012005F0C5F905F085F901222A
:10189C008021624805F0BCFD00224FF400715F48C6
:1018AC0005F0B6FD01224FF480615C4805F0B0FDF7
:1018BC0001224FF40061594805F0AAFD01224FF4B2
:1018CC008051564805F0A4FD01224FF400515348B5
:1018DC0005F09EFD012005F09DF905F05DF9012252
:1018EC004FF480714D4805F093FD01224FF40071C7
:1018FC004A4805F08DFD00224FF48061474805F001
:10190C0087FD01224FF40061444805F081FD01225E
:10191C004FF48051414805F07BFD01224FF40051FA
:10192C003E4805F075FD012005F074F905F034F919
:10193C003B6B01333B633B6B952B7FF774AF002301
:10194C00FB6264E005F028F9012005F063F905F06D
:10195C0023F9012005F05EF905F01EF90122402162
:10196C002E4805F055FD00224FF400712B4805F070
:10197C004FFD01224FF48061284805F049FD0122FA
:10198C004FF40061254805F043FD01224FF48051CE
:10199C00224805F03DFD01224FF400511F4805F08F
:1019AC0037FD012005F036F905F0F6F8012005F0B9
:1019BC0031F905F0F1F801224FF48071174805F068
:1019CC0027FD01224FF40071144805F021FD00227F
:1019DC004FF48061114805F01BFD01224FF40061AA
:1019EC000E4805F015FD01224FF480510B4805F00F
:1019FC000FFD01224FF40051084805F009FD0120AC
:101A0C0005F008F905F0C8F8FB6A0133FB62FB6AC4
:101A1C00952B97DD0023BB6267E000BF00080140F7
:101A2C0005F0BAF8012005F0F5F805F0B5F801203D
:101A3C0005F0F0F805F0B0F801224021AB4805F0B4
:101A4C00E7FC00224FF40071A84805F0E1FC0122EC
:101A5C004FF48061A54805F0DBFC01224FF40061D6
:101A6C00A24805F0D5FC01224FF480519F4805F0A7
:101A7C00CFFC01224FF400519C4805F0C9FC012019
:101A8C0005F0C8F805F088F8012005F0C3F805F05A
:101A9C0083F801224FF48071944805F0B9FC0122BF
:101AAC004FF40071914805F0B3FC00224FF48061B3
:101ABC008E4805F0ADFC00224FF400618B4805F018
:101ACC00A7FC01224FF48051884805F0A1FC0122AB
:101ADC004FF40051854805F09BFC012005F09AF865
:101AEC0005F05AF8BB6A0133BB62BB6A952B97DDD4
:101AFC0000237B6264E005F04FF8012005F08AF8C2
:101B0C0005F04AF8012005F085F805F045F80122AA
:101B1C004021764805F07CFC00224FF4007173489C
:101B2C0005F076FC01224FF48061704805F070FCE2
:101B3C0001224FF400616D4805F06AFC01224FF45C
:101B4C0080516A4805F064FC01224FF4005167484B
:101B5C0005F05EFC012005F05DF805F01DF8012094
:101B6C0005F058F805F018F801224FF480715F4821
:101B7C0005F04EFC01224FF400715C4805F048FC66
:101B8C0000224FF48061594805F042FC01224FF4C9
:101B9C000061564805F03CFC00224FF4805153483C
:101BAC0005F036FC01224FF40051504805F030FC92
:101BBC00012005F02FF804F0EFFF7B6A01337B6204
:101BCC007B6A952B97DD00233B6287E004F0E4FFF2
:101BDC00012005F01FF804F0DFFF012005F01AF8D2
:101BEC0004F0DAFF01224021404805F011FC0022EC
:101BFC004FF400713D4805F00BFC01224FF480615D
:101C0C003A4805F005FC01224FF40061374805F015
:101C1C00FFFB01224FF48051344805F0F9FB0122FF
:101C2C004FF40051314805F0F3FB012004F0F2FFB2
:101C3C0004F0B2FF012280212C4805F0E9FB0122BF
:101C4C004FF40071294805F0E3FB01224FF4806149
:101C5C00264805F0DDFB01224FF40061234805F016
:101C6C00D7FB01224FF48051204805F0D1FB002214
:101C7C004FF400511D4805F0CBFB012004F0CAFFC6
:101C8C0004F08AFF01224FF48071184805F0C0FB64
:101C9C0001224FF40071154805F0BAFB00224FF4F5
:101CAC008061124805F0B4FB01224FF400610F482B
:101CBC0005F0AEFB01224FF480510C4805F0A8FB57
:101CCC0001224FF40051094805F0A2FB012004F059
:101CDC00A1FF04F061FF3B6A01333B623B6A952B29
:101CEC007FF774AF0023FB6167E000BF0008014081
:101CFC0004F052FF012004F08DFF04F04DFF012091
:101D0C0004F088FF04F048FF01224021BD4805F093
:101D1C007FFB00224FF40071BA4805F079FB0122D9
:101D2C004FF48061B74805F073FB01224FF400615A
:101D3C00B44805F06DFB01224FF48051B14805F019
:101D4C0067FB00224FF40051AE4805F061FB012007
:101D5C0004F060FF04F020FF012004F05BFF04F0AE
:101D6C001BFF01224FF48071A64805F051FB0122A4
:101D7C004FF40071A34805F04BFB00224FF4806137
:101D8C00A04805F045FB01224FF400619D4805F089
:101D9C003FFB01224FF480519A4805F039FB012298
:101DAC004FF40051974805F033FB012004F032FF4B
:101DBC0004F0F2FEFB690133FB61FB69952B97DDA7
:101DCC000023BB6187E004F0E7FE012004F022FF52
:101DDC0004F0E2FE012220218A4805F019FB0122C1
:101DEC004FF40071874805F013FB01224FF480611A
:101DFC00844805F00DFB01224FF40061814805F089
:101E0C0007FB01224FF480517E4805F001FB0022B4
:101E1C004FF400517B4805F0FBFA012004F0FAFE68
:101E2C0004F0BAFE01224021764805F0F1FA0022B6
:101E3C004FF40071734805F0EBFA01224FF4806106
:101E4C00704805F0E5FA01224FF400616D4805F089
:101E5C00DFFA01224FF480516A4805F0D9FA0122C9
:101E6C004FF40051674805F0D3FA012004F0D2FE7C
:101E7C0004F092FE012004F0CDFE04F08DFE012250
:101E8C004FF480715F4805F0C3FA01224FF40071E2
:101E9C005C4805F0BDFA00224FF48061594805F00A
:101EAC00B7FA01224FF40061564805F0B1FA01224D
:101EBC004FF48051534805F0ABFA01224FF4005116
:101ECC00504805F0A5FA012004F0A4FE04F064FECD
:101EDC00BB690133BB61BB69952B7FF774AF0023E2
:101EEC007B6187E004F058FE01221021454805F083
:101EFC008FFA01224FF40071424805F089FA012251
:101F0C004FF480613F4805F083FA01224FF40061E1
:101F1C003C4805F07DFA00224FF48051394805F019
:101F2C0077FA01224FF40051364805F071FA01207E
:101F3C0004F070FE04F030FE012004F06BFE04F09F
:101F4C002BFE012240212F4805F062FA00224FF4AB
:101F5C0000712C4805F05CFA01224FF4806129488D
:101F6C0005F056FA01224FF40061264805F050FAAC
:101F7C0001224FF48051234805F04AFA01224FF414
:101F8C000051204805F044FA012004F043FE04F00F
:101F9C0003FE012004F03EFE04F0FEFD01224FF48E
:101FAC008071184805F034FA01224FF4007115487D
:101FBC0005F02EFA00224FF48061124805F028FA41
:101FCC0001224FF400610F4805F022FA01224FF470
:101FDC0080510C4805F01CFA01224FF400510948BD
:101FEC0005F016FA012004F015FE04F0D5FD7B690E
:101FFC0001337B617B69952B7FF774AF00233B61C9
:10200C008AE000BF0008014004F0C6FD0122102147
:10201C00D44805F0FDF901224FF40071D14805F0C8
:10202C00F7F901224FF48061CE4805F0F1F9002256
:10203C004FF40061CB4805F0EBF901224FF48051CD
:10204C00C84805F0E5F901224FF40051C54805F0E8
:10205C00DFF9012004F0DEFD04F09EFD012004F008
:10206C00D9FD04F099FD01224021BE4805F0D0F9BC
:10207C0000224FF40071BB4805F0CAF901224FF45D
:10208C008061B84805F0C4F901224FF40061B548ED
:10209C0005F0BEF901224FF48051B24805F0B8F9B1
:1020AC0001224FF40051AF4805F0B2F9012004F0C1
:1020BC00B1FD04F071FD012004F0ACFD04F06CFDE9
:1020CC0001224FF48071A74805F0A2F901224FF4C8
:1020DC000071A44805F09CF900224FF48061A148DE
:1020EC0005F096F901224FF400619E4805F090F935
:1020FC0001224FF480519B4805F08AF901224FF4DC
:10210C000051984805F084F9012004F083FD04F097
:10211C0043FD3B6901333B613B69952B7FF774AF02
:10212C000023FB6087E004F037FD012210218D486D
:10213C0005F06EF901224FF400718A4805F068F938
:10214C0000224FF48061874805F062F901224FF4B8
:10215C000061844805F05CF901224FF480518148FC
:10216C0005F056F901224FF400517E4805F050F964
:10217C00012004F04FFD04F00FFD012004F04AFD96
:10218C0004F00AFD01224021764805F041F90022B5
:10219C004FF40071734805F03BF901224FF4806154
:1021AC00704805F035F901224FF400616D4805F0D7
:1021BC002FF901224FF480516A4805F029F90122C8
:1021CC004FF40051674805F023F9012004F022FD7B
:1021DC0004F0E2FC012004F01DFD04F0DDFC012202
:1021EC004FF480715F4805F013F901224FF4007130
:1021FC005C4805F00DF900224FF48061594805F058
:10220C0007F901224FF40061564805F001F901224B
:10221C004FF48051534805F0FBF801224FF4005164
:10222C00504805F0F5F8012004F0F4FC04F0B4FC7F
:10223C00FB680133FB60FB68952B7FF774AF0023C1
:10224C00BB6087E004F0A8FC012004F0E3FC04F080
:10225C00A3FC01222021434805F0DAF800224FF4B8
:10226C000071404805F0D4F801224FF480613D48DC
:10227C0005F0CEF801224FF400613A4805F0C8F899
:10228C0001224FF48051374805F0C2F801224FF477
:10229C000051344805F0BCF8012004F0BBFC04F0FC
:1022AC007BFC012240212F4805F0B2F800224FF4AC
:1022BC0000712C4805F0ACF801224FF480612948DC
:1022CC0005F0A6F801224FF40061264805F0A0F8AD
:1022DC0001224FF48051234805F09AF801224FF463
:1022EC000051204805F094F8012004F093FC04F010
:1022FC0053FC012004F08EFC04F04EFC01224FF440
:10230C008071184805F084F801224FF400711548CB
:10231C0005F07EF800224FF48061124805F078F841
:10232C0001224FF400610F4805F072F801224FF4BE
:10233C0080510C4805F06CF801224FF4005109480B
:10234C0005F066F8012004F065FC04F025FCBB6880
:10235C000133BB60BB68952B7FF774AF00237B60A8
:10236C0005E000BF000801407B6801337B607B689F
:10237C00952BF9DD00BF00BF3837BD4680BD00BFCF
:10238C0080B58EB000AF00237B6364E004F004FCE6
:10239C00012004F03FFC04F0FFFB012004F03AFCA8
:1023AC0004F0FAFB01224021AB4805F031F8002281
:1023BC004FF40071A84805F02BF801224FF480610E
:1023CC00A54805F025F801224FF40061A24805F05C
:1023DC001FF801224FF480519F4805F019F8012293
:1023EC004FF400519C4805F013F8012004F012FC46
:1023FC0004F0D2FB012004F00DFC04F0CDFB012213
:10240C004FF48071944805F003F801224FF40071E9
:10241C00914804F0FDFF01224FF480618E4804F0D6
:10242C00F7FF00224FF400618B4804F0F1FF01220A
:10243C004FF48051884804F0EBFF01224FF4005117
:10244C00854804F0E5FF012004F0E4FB04F0A4FB54
:10245C007B6B01337B637B6B952B97DD00233B639D
:10246C0087E004F099FB012004F0D4FB04F094FB0A
:10247C00012004F0CFFB04F08FFB012240217648B1
:10248C0004F0C6FF00224FF40071734804F0C0FF43
:10249C0001224FF48061704804F0BAFF01224FF41E
:1024AC0000616D4804F0B4FF01224FF480516A487A
:1024BC0004F0AEFF01224FF40051674804F0A8FF6E
:1024CC00012004F0A7FB04F067FB01228021624885
:1024DC0004F09EFF00224FF400715F4804F098FF57
:1024EC0001224FF480615C4804F092FF01224FF40A
:1024FC000061594804F08CFF01224FF4805156487A
:10250C0004F086FF01224FF40051534804F080FF81
:10251C00012004F07FFB04F03FFB01224FF480719B
:10252C004D4804F075FF01224FF400714A4804F045
:10253C006FFF01224FF48061474804F069FF0022CD
:10254C004FF40061444804F063FF01224FF48051C2
:10255C00414804F05DFF01224FF400513E4804F065
:10256C0057FF012004F056FB04F016FB3B6B0133C4
:10257C003B633B6B952B7FF774AF0023FB6264E0EE
:10258C0004F00AFB012004F045FB04F005FB0120DC
:10259C0004F040FB04F000FB012240212E4804F023
:1025AC0037FF00224FF400712B4804F031FF012259
:1025BC004FF48061284804F02BFF01224FF4006196
:1025CC00254804F025FF01224FF48051224804F0E5
:1025DC001FFF01224FF400511F4804F019FF012086
:1025EC0004F018FB04F0D8FA012004F013FB04F0FB
:1025FC00D3FA01224FF48071174804F009FF01222D
:10260C004FF40071144804F003FF00224FF4806172
:10261C00114804F0FDFE00224FF400610E4804F056
:10262C00F7FE01224FF480510B4804F0F1FE012219
:10263C004FF40051084804F0EBFE012004F0EAFAD4
:10264C0004F0AAFAFB6A0133FB62FB6A952B97DD57
:10265C000023BB6267E000BF0008014004F09CFA55
:10266C00012004F0D7FA04F097FA012004F0D2FA12
:10267C0004F092FA01224021AB4804F0C9FE00227A
:10268C004FF40071A84804F0C3FE01224FF480619E
:10269C00A54804F0BDFE01224FF40061A24804F0ED
:1026AC00B7FE01224FF480519F4804F0B1FE012285
:1026BC004FF400519C4804F0ABFE012004F0AAFA40
:1026CC0004F06AFA012004F0A5FA04F065FA01227C
:1026DC004FF48071944804F09BFE01224FF400717A
:1026EC00914804F095FE01224FF480618E4804F06D
:1026FC008FFE00224FF400618B4804F089FE01220A
:10270C004FF48051884804F083FE01224FF40051AD
:10271C00854804F07DFE012004F07CFA04F03CFABC
:10272C00BB6A0133BB62BB6A952B97DD00237B62CE
:10273C0064E004F031FA012004F06CFA04F02CFA95
:10274C00012004F067FA04F027FA012240217648B0
:10275C0004F05EFE00224FF40071734804F058FE42
:10276C0001224FF48061704804F052FE01224FF4B4
:10277C0000616D4804F04CFE01224FF480516A4810
:10278C0004F046FE01224FF40051674804F040FE6D
:10279C00012004F03FFA04F0FFF9012004F03AFAAA
:1027AC0004F0FAF901224FF480715F4804F030FE16
:1027BC0001224FF400715C4804F02AFE01224FF410
:1027CC008061594804F024FE00224FF40061564801
:1027DC0004F01EFE00224FF48051534804F018FE02
:1027EC0001224FF40051504804F012FE012004F075
:1027FC0011FA04F0D1F97B6A01337B627B6A952B69
:10280C0097DD00233B6287E004F0C6F9012004F059
:10281C0001FA04F0C1F9012004F0FCF904F0BCF950
:10282C0001224021404804F0F3FD00224FF40071D6
:10283C003D4804F0EDFD01224FF480613A4804F06C
:10284C00E7FD01224FF40061374804F0E1FD01225D
:10285C004FF48051344804F0DBFD01224FF4005159
:10286C00314804F0D5FD012004F0D4F904F094F9BA
:10287C00012280212C4804F0CBFD01224FF4007181
:10288C00294804F0C5FD01224FF48061264804F06C
:10289C00BFFD01224FF40061234804F0B9FD012271
:1028AC004FF48051204804F0B3FD00224FF4005146
:1028BC001D4804F0ADFD012004F0ACF904F06CF9F6
:1028CC0001224FF48071184804F0A2FD01224FF44C
:1028DC000071154804F09CFD01224FF480611248F0
:1028EC0004F096FD00224FF400610F4804F090FDB7
:1028FC0001224FF480510C4804F08AFD01224FF460
:10290C000051094804F084FD012004F083F904F01F
:10291C0043F93B6A01333B623B6A952B7FF774AFFB
:10292C000023FB6167E000BF0008014004F034F9AC
:10293C00012004F06FF904F02FF9012004F06AF97A
:10294C0004F02AF901224021BD4804F061FD002267
:10295C004FF40071BA4804F05BFD01224FF4806122
:10296C00B74804F055FD01224FF40061B44804F05F
:10297C004FFD01224FF48051B14804F049FD002273
:10298C004FF40051AE4804F043FD012004F042F92D
:10299C0004F002F9012004F03DF904F0FDF80122E5
:1029AC004FF48071A64804F033FD01224FF40071FE
:1029BC00A34804F02DFD01224FF48061A04804F0DF
:1029CC0027FD00224FF400619D4804F021FD0122F7
:1029DC004FF480519A4804F01BFD01224FF4005132
:1029EC00974804F015FD012004F014F904F0D4F814
:1029FC00FB690133FB61FB69952B97DD0023BB6100
:102A0C0087E004F0C9F8012004F004F904F0C4F8DC
:102A1C00012220218A4804F0FBFC01224FF40071B2
:102A2C00874804F0F5FC01224FF48061844804F0DF
:102A3C00EFFC01224FF40061814804F0E9FC012213
:102A4C004FF480517E4804F0E3FC00224FF4005117
:102A5C007B4804F0DDFC012004F0DCF804F09CF869
:102A6C0001224021764804F0D3FC00224FF400717F
:102A7C00734804F0CDFC01224FF48061704804F0DF
:102A8C00C7FC01224FF400616D4804F0C1FC012227
:102A9C004FF480516A4804F0BBFC01224FF4005102
:102AAC00674804F0B5FC012004F0B4F804F074F8A5
:102ABC00012004F0AFF804F06FF801224FF480719C
:102ACC005F4804F0A5FC01224FF400715C4804F04F
:102ADC009FFC01224FF48061594804F099FC0022BC
:102AEC004FF40061564804F093FC01224FF48051DE
:102AFC00534804F08DFC01224FF40051504804F06F
:102B0C0087FC012004F086F804F046F8BB69013319
:102B1C00BB61BB69952B7FF774AF00237B6187E0AA
:102B2C0004F03AF801221021454804F071FC01220E
:102B3C004FF40071424804F06BFC01224FF48061A9
:102B4C003F4804F065FC01224FF400613C4804F05E
:102B5C005FFC00224FF48051394804F059FC0122EB
:102B6C004FF40051364804F053FC012004F052F8A5
:102B7C0004F012F8012004F04DF804F00DF80122D5
:102B8C0040212F4804F044FC00224FF400712C48E3
:102B9C0004F03EFC01224FF48061294804F038FC1B
:102BAC0001224FF40061264804F032FC01224FF45C
:102BBC008051234804F02CFC01224FF40051204892
:102BCC0004F026FC012004F025F803F0E5FF0120B9
:102BDC0004F020F803F0E0FF01224FF48071184854
:102BEC0004F016FC01224FF40071154804F010FC9F
:102BFC0001224FF48061124804F00AFC00224FF4C9
:102C0C0000610F4804F004FC01224FF480510C4881
:102C1C0004F0FEFB01224FF40051094804F0F8FBCC
:102C2C00012003F0F7FF03F0B7FF7B6901337B61F1
:102C3C007B69952B7FF774AF00233B618AE000BF63
:102C4C000008014003F0A8FF01221021D44804F031
:102C5C00DFFB01224FF40071D14804F0D9FB0122B3
:102C6C004FF48061CE4804F0D3FB00224FF4006196
:102C7C00CB4804F0CDFB01224FF48051C84804F03E
:102C8C00C7FB01224FF40051C54804F0C1FB0120E1
:102C9C0003F0C0FF03F080FF012003F0BBFF03F043
:102CAC007BFF01224021BE4804F0B2FB00224FF40E
:102CBC000071BB4804F0ACFB01224FF48061B848B2
:102CCC0004F0A6FB01224FF40061B54804F0A0FB10
:102CDC0001224FF48051B24804F09AFB01224FF4C8
:102CEC000051AF4804F094FB012003F093FF03F074
:102CFC0053FF012003F08EFF03F04EFF01224FF42F
:102D0C008071A74804F084FB01224FF40071A448A1
:102D1C0004F07EFB01224FF48061A14804F078FBA3
:102D2C0000224FF400619E4804F072FB01224FF424
:102D3C0080519B4804F06CFB01224FF400519848E1
:102D4C0004F066FB012003F065FF03F025FF3B69EF
:102D5C0001333B613B69952B7FF774AF0023FB601C
:102D6C0087E003F019FF012210218D4804F050FB7D
:102D7C0001224FF400718A4804F04AFB00224FF400
:102D8C008061874804F044FB01224FF400618448C1
:102D9C0004F03EFB01224FF48051814804F038FBD3
:102DAC0001224FF400517E4804F032FB012003F065
:102DBC0031FF03F0F1FE012003F02CFF03F0ECFED9
:102DCC0001224021764804F023FB00224FF40071CD
:102DDC00734804F01DFB01224FF48061704804F02D
:102DEC0017FB01224FF400616D4804F011FB012226
:102DFC004FF480516A4804F00BFB01224FF4005150
:102E0C00674804F005FB012003F004FF03F0C4FE47
:102E1C00012003F0FFFE03F0BFFE01224FF480718E
:102E2C005F4804F0F5FA01224FF400715C4804F09D
:102E3C00EFFA01224FF48061594804F0E9FA0022BC
:102E4C004FF40061564804F0E3FA01224FF480512C
:102E5C00534804F0DDFA01224FF40051504804F0BD
:102E6C00D7FA012003F0D6FE03F096FEFB6801337F
:102E7C00FB60FB68952B7FF774AF0023BB6087E08A
:102E8C0003F08AFE012003F0C5FE03F085FE01224B
:102E9C002021434804F0BCFA00224FF40071404852
:102EAC0004F0B6FA01224FF480613D4804F0B0FA08
:102EBC0001224FF400613A4804F0AAFA01224FF4BF
:102ECC008051374804F0A4FA01224FF400513448E1
:102EDC0004F09EFA012003F09DFE03F05DFE01223A
:102EEC0040212F4804F094FA00224FF400712C4832
:102EFC0004F08EFA01224FF48061294804F088FA1C
:102F0C0001224FF40061264804F082FA01224FF4AA
:102F1C008051234804F07CFA01224FF400512048E0
:102F2C0004F076FA012003F075FE03F035FE012063
:102F3C0003F070FE03F030FE01224FF4807118484C
:102F4C0004F066FA01224FF40071154804F060FA9F
:102F5C0001224FF48061124804F05AFA00224FF417
:102F6C0000610F4804F054FA01224FF480510C48D0
:102F7C0004F04EFA01224FF40051094804F048FACB
:102F8C00012003F047FE03F007FEBB680133BB6072
:102F9C00BB68952B7FF774AF00237B6005E000BF07
:102FAC00000801407B6801337B607B68952BF9DD61
:102FBC0000BF00BF3837BD4680BD00BF80B58EB0A6
:102FCC0000AF00237B6364E003F0E6FD012003F017
:102FDC0021FE03F0E1FD012003F01CFE03F0DCFDFB
:102FEC0001224021AB4804F013FA00224FF4007187
:102FFC00A84804F00DFA01224FF48061A54804F0B2
:10300C0007FA01224FF40061A24804F001FA0122F0
:10301C004FF480519F4804F0FBF901224FF400510A
:10302C009C4804F0F5F9012003F0F4FD03F0B4FD25
:10303C00012003F0EFFD03F0AFFD01224FF480718E
:10304C00944804F0E5F901224FF40071914804F022
:10305C00DFF901224FF480618E4804F0D9F9012286
:10306C004FF400618B4804F0D3F900224FF48051E7
:10307C00884804F0CDF901224FF40051854804F042
:10308C00C7F9012003F0C6FD03F086FD7B6B01330D
:10309C007B637B6B952B97DD00233B6387E003F011
:1030AC007BFD012003F0B6FD03F076FD012003F05B
:1030BC00B1FD03F071FD01224021764804F0A8F91E
:1030CC0000224FF40071734804F0A2F901224FF46E
:1030DC008061704804F09CF901224FF400616D4846
:1030EC0004F096F901224FF480516A4804F090F9EB
:1030FC0001224FF40051674804F08AF9012003F0D3
:10310C0089FD03F049FD01228021624804F080F919
:10311C0000224FF400715F4804F07AF901224FF459
:10312C0080615C4804F074F901224FF40061594845
:10313C0004F06EF901224FF48051564804F068F9FE
:10314C0001224FF40051534804F062F9012003F0BE
:10315C0061FD03F021FD01224FF480714D4804F014
:10316C0057F901224FF400714A4804F051F9012239
:10317C004FF48061474804F04BF901224FF4006191
:10318C00444804F045F900224FF48051414804F0C2
:10319C003FF901224FF400513E4804F039F9012067
:1031AC0003F038FD03F0F8FC3B6B01333B633B6BE6
:1031BC00952B7FF774AF0023FB6264E003F0ECFC0B
:1031CC00012003F027FD03F0E7FC012003F022FDB2
:1031DC0003F0E2FC012240212E4804F019F90022F0
:1031EC004FF400712B4804F013F901224FF4806165
:1031FC00284804F00DF901224FF40061254804F031
:10320C0007F901224FF48051224804F001F9012200
:10321C004FF400511F4804F0FBF8012003F0FAFCB6
:10322C0003F0BAFC012003F0F5FC03F0B5FC01221D
:10323C004FF48071174804F0EBF801224FF4007141
:10324C00144804F0E5F800224FF48061114804F0B2
:10325C00DFF801224FF400610E4804F0D9F8002287
:10326C004FF480510B4804F0D3F801224FF4005175
:10327C00084804F0CDF8012003F0CCFC03F08CFCE2
:10328C00FB6A0133FB62FB6A952B97DD0023BB6263
:10329C0067E000BF0008014003F07EFC012003F052
:1032AC00B9FC03F079FC012003F0B4FC03F074FCCE
:1032BC0001224021AB4804F0ABF800224FF400711E
:1032CC00A84804F0A5F801224FF48061A54804F049
:1032DC009FF801224FF40061A24804F099F80122F2
:1032EC004FF480519F4804F093F801224FF40051A1
:1032FC009C4804F08DF8012003F08CFC03F04CFC8E
:10330C00012003F087FC03F047FC01224FF480718D
:10331C00944804F07DF801224FF40071914804F0B8
:10332C0077F801224FF480618E4804F071F8002286
:10333C004FF400618B4804F06BF800224FF480517D
:10334C00884804F065F801224FF40051854804F0D8
:10335C005FF8012003F05EFC03F01EFCBB6A013336
:10336C00BB62BB6A952B97DD00237B6264E003F0A4
:10337C0013FC012003F04EFC03F00EFC012003F0C3
:10338C0049FC03F009FC01224021764804F040F886
:10339C0000224FF40071734804F03AF801224FF404
:1033AC008061704804F034F801224FF400616D48DC
:1033BC0004F02EF801224FF480516A4804F028F8EA
:1033CC0001224FF40051674804F022F8012003F069
:1033DC0021FC03F0E1FB012003F01CFC03F0DCFBFF
:1033EC0001224FF480715F4804F012F801224FF46F
:1033FC0000715C4804F00CF801224FF480615948CC
:10340C0004F006F801224FF40061564804F000F86D
:10341C0000224FF48051534803F0FAFF01224FF47D
:10342C000051504803F0F4FF012003F0F3FB03F0CC
:10343C00B3FB7B6A01337B627B6A952B97DD0023A0
:10344C003B6287E003F0A8FB012003F0E3FB03F0F1
:10345C00A3FB012003F0DEFB03F09EFB01224021C5
:10346C00404803F0D5FF00224FF400713D4803F0B3
:10347C00CFFF01224FF480613A4803F0C9FF0122CB
:10348C004FF40061374803F0C3FF01224FF4805121
:10349C00344803F0BDFF01224FF40051314803F0D2
:1034AC00B7FF012003F0B6FB03F076FB012280216D
:1034BC002C4803F0ADFF01224FF40071294803F0B2
:1034CC00A7FF01224FF48061264803F0A1FF0122DF
:1034DC004FF40061234803F09BFF01224FF480510D
:1034EC00204803F095FF00224FF400511D4803F0D3
:1034FC008FFF012003F08EFB03F04EFB01224FF4F3
:10350C008071184803F084FF01224FF400711548B4
:10351C0003F07EFF01224FF48061124803F078FF24
:10352C0001224FF400610F4803F072FF00224FF4A8
:10353C0080510C4803F06CFF01224FF400510948F4
:10354C0003F066FF012003F065FB03F025FB3B6AEB
:10355C0001333B623B6A952B7FF774AF0023FB6111
:10356C0067E000BF0008014003F016FB012003F0E8
:10357C0051FB03F011FB012003F04CFB03F00CFB9F
:10358C0001224021BD4803F043FF00224FF400719B
:10359C00BA4803F03DFF01224FF48061B74803F0B5
:1035AC0037FF01224FF40061B44803F031FF0122D0
:1035BC004FF48051B14803F02BFF00224FF400511F
:1035CC00AE4803F025FF012003F024FB03F0E4FADE
:1035DC00012003F01FFB03F0DFFA01224FF480718E
:1035EC00A64803F015FF01224FF40071A34803F025
:1035FC000FFF01224FF48061A04803F009FF012264
:10360C004FF400619D4803F003FF00224FF48051FA
:10361C009A4803F0FDFE01224FF40051974803F045
:10362C00F7FE012003F0F6FA03F0B6FAFB6901335A
:10363C00FB61FB69952B97DD0023BB6187E003F0F1
:10364C00ABFA012003F0E6FA03F0A6FA01222021DE
:10365C008A4803F0DDFE01224FF40071874803F025
:10366C00D7FE01224FF48061844803F0D1FE012281
:10367C004FF40061814803F0CBFE01224FF48051DE
:10368C007E4803F0C5FE00224FF400517B4803F046
:10369C00BFFE012003F0BEFA03F07EFA01224021A6
:1036AC00764803F0B5FE00224FF40071734803F026
:1036BC00AFFE01224FF48061704803F0A9FE012295
:1036CC004FF400616D4803F0A3FE01224FF48051CA
:1036DC006A4803F09DFE01224FF40051674803F045
:1036EC0097FE012003F096FA03F056FA012003F03E
:1036FC0091FA03F051FA01224FF480715F4803F004
:10370C0087FE01224FF400715C4803F081FE012218
:10371C004FF48061594803F07BFE01224FF40061A5
:10372C00564803F075FE00224FF48051534803F0C5
:10373C006FFE01224FF40051504803F069FE012046
:10374C0003F068FA03F028FABB690133BB61BB696B
:10375C00952B7FF774AF00237B6187E003F01CFA95
:10376C0001221021454803F053FE01224FF4007151
:10377C00424803F04DFE01224FF480613F4803F0B4
:10378C0047FE01224FF400613C4803F041FE002249
:10379C004FF48051394803F03BFE01224FF40051A5
:1037AC00364803F035FE012003F034FA03F0F4F947
:1037BC00012003F02FFA03F0EFF9012240212F48EA
:1037CC0003F026FE00224FF400712C4803F020FE7B
:1037DC0001224FF48061294803F01AFE01224FF4B4
:1037EC000061264803F014FE01224FF48051234857
:1037FC0003F00EFE01224FF40051204803F008FEA6
:10380C00012003F007FA03F0C7F9012003F002FAD4
:10381C0003F0C2F901224FF48071184803F0F8FD4F
:10382C0001224FF40071154803F0F2FD01224FF410
:10383C008061124803F0ECFD01224FF400610F4847
:10384C0003F0E6FD00224FF480510C4803F0E0FD3C
:10385C0001224FF40051094803F0DAFD012003F076
:10386C00D9F903F099F97B6901337B617B69952B5D
:10387C007FF774AF00233B618AE000BF0008014072
:10388C0003F08AF901221021D44803F0C1FD012272
:10389C004FF40071D14803F0BBFD01224FF480615D
:1038AC00CE4803F0B5FD00224FF40061CB4803F085
:1038BC00AFFD01224FF48051C84803F0A9FD01224D
:1038CC004FF40051C54803F0A3FD012003F0A2F909
:1038DC0003F062F9012003F09DF903F05DF9012278
:1038EC004021BE4803F094FD00224FF40071BB4808
:1038FC0003F08EFD01224FF48061B84803F088FD7F
:10390C0001224FF40061B54803F082FD01224FF40F
:10391C008051B24803F07CFD01224FF40051AF48B6
:10392C0003F076FD012003F075F903F035F9012061
:10393C0003F070F903F030F901224FF48071A748BD
:10394C0003F066FD01224FF40071A44803F060FD02
:10395C0001224FF48061A14803F05AFD01224FF47B
:10396C0000619E4803F054FD00224FF480519B48A7
:10397C0003F04EFD01224FF40051984803F048FD2E
:10398C00012003F047F903F007F93B6901333B6170
:10399C003B69952B7FF774AF0023FB6087E003F046
:1039AC00FBF8012210218D4803F032FD01224FF467
:1039BC0000718A4803F02CFD00224FF48061874887
:1039CC0003F026FD01224FF40061844803F020FD32
:1039DC0001224FF48051814803F01AFD01224FF46B
:1039EC0000517E4803F014FD012003F013F903F09D
:1039FC00D3F8012003F00EF903F0CEF80122402198
:103A0C00764803F005FD00224FF40071734803F073
:103A1C00FFFC01224FF48061704803F0F9FC012295
:103A2C004FF400616D4803F0F3FC01224FF4805118
:103A3C006A4803F0EDFC01224FF40051674803F093
:103A4C00E7FC012003F0E6F803F0A6F8012003F0F0
:103A5C00E1F803F0A1F801224FF480715F4803F004
:103A6C00D7FC01224FF400715C4803F0D1FC012219
:103A7C004FF48061594803F0CBFC01224FF40061F4
:103A8C00564803F0C5FC00224FF48051534803F014
:103A9C00BFFC01224FF40051504803F0B9FC012047
:103AAC0003F0B8F803F078F8FB680133FB60FB68AF
:103ABC00952B7FF774AF0023BB6087E003F06CF8A5
:103ACC00012003F0A7F803F067F8012220214348F6
:103ADC0003F09EFC00224FF40071404803F098FC68
:103AEC0001224FF480613D4803F092FC01224FF417
:103AFC0000613A4803F08CFC01224FF480513748A6
:103B0C0003F086FC01224FF40051344803F080FC92
:103B1C00012003F07FF803F03FF8012240212F48E9
:103B2C0003F076FC00224FF400712C4803F070FC7B
:103B3C0001224FF48061294803F06AFC01224FF402
:103B4C000061264803F064FC01224FF480512348A5
:103B5C0003F05EFC01224FF40051204803F058FCA6
:103B6C00012003F057F803F017F8012003F052F886
:103B7C0003F012F801224FF48071184803F048FC4E
:103B8C0001224FF40071154803F042FC01224FF45E
:103B9C008061124803F03CFC01224FF400610F4895
:103BAC0003F036FC00224FF480510C4803F030FC3B
:103BBC0001224FF40051094803F02AFC012003F0C4
:103BCC0029F802F0E9FFBB680133BB60BB68952B99
:103BDC007FF774AF00237B6005E000BF0008014055
:103BEC007B6801337B607B68952BF9DD00BF00BFE0
:103BFC003837BD4680BD00BF80B58EB000AF002306
:103C0C007B6363E002F0C8FF012003F003F802F0CD
:103C1C00C3FF012002F0FEFF02F0BEFF0122402193
:103C2C00AA4803F0F5FB00224FF40071A74803F0FB
:103C3C00EFFB01224FF48061A44803F0E9FB012261
:103C4C004FF40061A14803F0E3FB01224FF48051D3
:103C5C009E4803F0DDFB01224FF400519B4803F01A
:103C6C00D7FB012002F0D6FF02F096FF0122802143
:103C7C00964803F0CDFB01224FF40071934803F0FA
:103C8C00C7FB01224FF48061904803F0C1FB012275
:103C9C004FF400618D4803F0BBFB01224FF48051BF
:103CAC008A4803F0B5FB00224FF40051874803F01B
:103CBC00AFFB012002F0AEFF02F06EFF012002F01C
:103CCC00A9FF02F069FF7B6B01337B637B6B952B48
:103CDC0098DD00233B6363E002F05EFF012002F0FD
:103CEC0099FF02F059FF012002F094FF02F054FFFB
:103CFC0001224021754803F08BFB00224FF4007128
:103D0C00724803F085FB01224FF480616F4803F089
:103D1C007FFB01224FF400616C4803F079FB012218
:103D2C004FF48051694803F073FB01224FF40051AA
:103D3C00664803F06DFB012002F06CFF02F02CFFD3
:103D4C0001228021614803F063FB00224FF40071D3
:103D5C005E4803F05DFB01224FF480615B4803F089
:103D6C0057FB01224FF40061584803F051FB01222C
:103D7C004FF48051554803F04BFB00224FF4005197
:103D8C00524803F045FB012002F044FF02F004FF0F
:103D9C00012002F03FFF02F0FFFE3B6B01333B635F
:103DAC003B6B952B98DD0023FB6287E002F0F4FE61
:103DBC00012002F02FFF02F0EFFE012002F02AFF9B
:103DCC0002F0EAFE01224021404803F021FB0022D0
:103DDC004FF400713D4803F01BFB01224FF480614E
:103DEC003A4803F015FB01224FF40061374803F009
:103DFC000FFB01224FF48051344803F009FB0122E0
:103E0C004FF40051314803F003FB012002F002FF94
:103E1C0002F0C2FE012280212C4803F0F9FA0122A3
:103E2C004FF40071294803F0F3FA01224FF480613A
:103E3C00264803F0EDFA01224FF40061234803F009
:103E4C00E7FA01224FF48051204803F0E1FA0022F6
:103E5C004FF400511D4803F0DBFA012002F0DAFEAA
:103E6C0002F09AFE01224FF48071184803F0D0FA48
:103E7C0001224FF40071154803F0CAFA00224FF4E6
:103E8C008061124803F0C4FA01224FF400610F481C
:103E9C0003F0BEFA01224FF480510C4803F0B8FA3B
:103EAC0001224FF40051094803F0B2FA012002F04C
:103EBC00B1FE02F071FEFB6A0133FB62FB6A952BCB
:103ECC007FF774AF0023BB628AE000BF000801409B
:103EDC0002F062FE012002F09DFE02F05DFE012068
:103EEC0002F098FE02F058FE01224021BC4803F07B
:103EFC008FFA00224FF40071B94803F089FA0122BD
:103F0C004FF48061B64803F083FA01224FF400614C
:103F1C00B34803F07DFA01224FF48051B04803F00E
:103F2C0077FA01224FF40051AD4803F071FA0120E9
:103F3C0002F070FE02F030FE01228021A84803F04E
:103F4C0067FA01224FF40071A54803F061FA0122CF
:103F5C004FF48061A24803F05BFA01224FF4006138
:103F6C009F4803F055FA01224FF480519C4803F00E
:103F7C004FFA00224FF40051994803F049FA0120FE
:103F8C0002F048FE02F008FE01224FF480719448C2
:103F9C0003F03EFA01224FF40071914803F038FA15
:103FAC0001224FF480618E4803F032FA00224FF464
:103FBC0000618B4803F02CFA01224FF480518848A1
:103FCC0003F026FA01224FF40051854803F020FA41
:103FDC00012002F01FFE02F0DFFDBB6A0133BB6261
:103FEC00BB6A952B7FF774AF00237B6287E002F0EE
:103FFC00D3FD012002F00EFE02F0CEFD012002F0F6
:10400C0009FE02F0C9FD01224021754803F000FAB7
:10401C0000224FF40071724803F0FAF901224FF4B8
:10402C0080616F4803F0F4F901224FF400616C4891
:10403C0003F0EEF901224FF48051694803F0E8F9DE
:10404C0001224FF40051664803F0E2F9012002F01E
:10405C00E1FD02F0A1FD01228021614803F0D8F9B5
:10406C0001224FF400715E4803F0D2F901224FF4A3
:10407C0080615B4803F0CCF901224FF40061584891
:10408C0003F0C6F901224FF48051554803F0C0F9F2
:10409C0000224FF40051524803F0BAF9012002F00B
:1040AC00B9FD02F079FD01224FF480714C4803F008
:1040BC00AFF901224FF40071494803F0A9F901222C
:1040CC004FF48061464803F0A3F901224FF40061DC
:1040DC00434803F09DF900224FF48051404803F00F
:1040EC0097F901224FF400513D4803F091F901205A
:1040FC0002F090FD02F050FD7B6A01337B627B6A1B
:10410C00952B7FF774AF00233B6263E002F044FD14
:10411C00012002F07FFD02F03FFD012002F07AFD4C
:10412C0002F03AFD012240212D4803F071F90022E2
:10413C004FF400712A4803F06BF901224FF48061AF
:10414C00274803F065F901224FF40061244803F07D
:10415C005FF901224FF48051214803F059F90122F3
:10416C004FF400511E4803F053F9012002F052FDA8
:10417C0002F012FD01228021194803F049F90122B5
:10418C004FF40071164803F043F901224FF480619B
:10419C00134803F03DF901224FF40061104803F07D
:1041AC0037F901224FF480510D4803F031F9002208
:1041BC004FF400510A4803F02BF9012002F02AFDBC
:1041CC0002F0EAFC012002F025FD02F0E5FC3B6A5E
:1041DC0001333B623B6A952B98DD0023FB6165E064
:1041EC000008014002F0D8FC012002F013FD02F09F
:1041FC00D3FC012002F00EFD02F0CEFC0122402186
:10420C00BB4803F005F900224FF40071B84803F0E5
:10421C00FFF801224FF48061B54803F0F9F8012250
:10422C004FF40061B24803F0F3F801224FF48051CF
:10423C00AF4803F0EDF800224FF40051AC4803F006
:10424C00E7F8012002F0E6FC02F0A6FC0122802136
:10425C00A74803F0DDF801224FF40071A44803F0E5
:10426C00D7F801224FF48061A14803F0D1F8012264
:10427C004FF400619E4803F0CBF801224FF48051BB
:10428C009B4803F0C5F800224FF40051984803F006
:10429C00BFF8012002F0BEFC02F07EFC012002F00F
:1042AC00B9FC02F079FCFB690133FB61FB69952BCE
:1042BC0098DD0023BB6186E002F06EFC012002F069
:1042CC00A9FC02F069FC01222021894803F0A0F826
:1042DC0001224FF40071864803F09AF801224FF442
:1042EC008061834803F094F801224FF40061804808
:1042FC0003F08EF801224FF480517D4803F088F8CA
:10430C0000224FF400517A4803F082F8012002F0A9
:10431C0081FC02F041FC01224021754803F078F841
:10432C0000224FF40071724803F072F801224FF42E
:10433C0080616F4803F06CF801224FF400616C4807
:10434C0003F066F801224FF48051694803F060F8DD
:10435C0001224FF40051664803F05AF8012002F094
:10436C0059FC02F019FC01228021614803F050F83D
:10437C0001224FF400715E4803F04AF801224FF419
:10438C0080615B4803F044F801224FF40061584807
:10439C0003F03EF801224FF48051554803F038F8F1
:1043AC0000224FF40051524803F032F8012002F081
:1043BC0031FC02F0F1FB012002F02CFC02F0ECFBD2
:1043CC00BB690133BB61BB69952B7FF775AF0023CC
:1043DC007B6186E002F0E0FB01221021444803F0EF
:1043EC0017F801224FF40071414803F011F8012233
:1043FC004FF480613E4803F00BF801224FF400614A
:10440C003B4803F005F800224FF48051384802F085
:10441C00FFFF01224FF40051354802F0F9FF012053
:10442C0002F0F8FB02F0B8FB012002F0F3FB02F003
:10443C00B3FB012240212E4802F0EAFF00224FF488
:10444C0000712B4802F0E4FF01224FF480612848F0
:10445C0002F0DEFF01224FF40061254802F0D8FF84
:10446C0001224FF48051224802F0D2FF01224FF476
:10447C0000511F4802F0CCFF012002F0CBFB02F0F0
:10448C008BFB012280211A4802F0C2FF01224FF45B
:10449C000071174802F0BCFF01224FF480611448F0
:1044AC0002F0B6FF01224FF40061114802F0B0FF98
:1044BC0001224FF480510E4802F0AAFF00224FF463
:1044CC0000510B4802F0A4FF012002F0A3FB02F004
:1044DC0063FB012002F09EFB02F05EFB7B69013363
:1044EC007B617B69952B7FF775AF00233B6188E07F
:1044FC000008014002F050FB01221021D84802F0C4
:10450C0087FF01224FF40071D54802F081FF012290
:10451C004FF48061D24802F07BFF00224FF400611F
:10452C00CF4802F075FF01224FF48051CC4802F0C5
:10453C006FFF01224FF40051C94802F069FF0120BE
:10454C0002F068FB02F028FB012002F063FB02F092
:10455C0023FB01224021C24802F05AFF00224FF4F3
:10456C000071BF4802F054FF01224FF48061BC4837
:10457C0002F04EFF01224FF40061B94802F048FFEF
:10458C0001224FF48051B64802F042FF01224FF451
:10459C000051B34802F03CFF012002F03BFB02F05B
:1045AC00FBFA01228021AE4802F032FF01224FF4C7
:1045BC000071AB4802F02CFF01224FF48061A84837
:1045CC0002F026FF01224FF40061A54802F020FF03
:1045DC0001224FF48051A24802F01AFF00224FF43E
:1045EC0000519F4802F014FF012002F013FB02F06F
:1045FC00D3FA012002F00EFB02F0CEFA3B69013334
:10460C003B613B69952B7FF775AF0023FB6086E020
:10461C0002F0C2FA01221021914802F0F9FE0122A7
:10462C004FF400718E4802F0F3FE00224FF48061CB
:10463C008B4802F0EDFE01224FF40061884802F035
:10464C00E7FE01224FF48051854802F0E1FE012281
:10465C004FF40051824802F0DBFE012002F0DAFA3E
:10466C0002F09AFA012002F0D5FA02F095FA012232
:10467C0040217B4802F0CCFE00224FF400717848B8
:10468C0002F0C6FE01224FF48061754802F0C0FEB4
:10469C0001224FF40061724802F0BAFE01224FF47D
:1046AC0080516F4802F0B4FE01224FF400516C4867
:1046BC0002F0AEFE012002F0ADFA02F06DFA01221A
:1046CC008021674802F0A4FE01224FF40071644877
:1046DC0002F09EFE01224FF48061614802F098FEC8
:1046EC0001224FF400615E4802F092FE01224FF469
:1046FC0080515B4802F08CFE00224FF40051584868
:10470C0002F086FE012002F085FA02F045FA012043
:10471C0002F080FA02F040FAFB680133FB60FB68A0
:10472C00952B7FF775AF0023BB6086E002F034FA5F
:10473C00012002F06FFA02F02FFA012220214848E2
:10474C0002F066FE00224FF40071454802F060FE54
:10475C0001224FF48061424802F05AFE01224FF4CC
:10476C0000613F4802F054FE01224FF480513C4856
:10477C0002F04EFE01224FF40051394802F048FE7F
:10478C00012002F047FA02F007FA012240213448D6
:10479C0002F03EFE00224FF40071314802F038FE68
:1047AC0001224FF480612E4802F032FE01224FF4B8
:1047BC0000612B4802F02CFE01224FF48051284856
:1047CC0002F026FE01224FF40051254802F020FE93
:1047DC00012002F01FFA02F0DFF9012280212048AB
:1047EC0002F016FE01224FF400711D4802F010FE7B
:1047FC0001224FF480611A4802F00AFE01224FF4A4
:10480C000061174802F004FE01224FF48051144855
:10481C0002F0FEFD00224FF40051114802F0F8FDA9
:10482C00012002F0F7F902F0B7F9012002F0F2F9D9
:10483C0002F0B2F9BB680133BB60BB68952B7FF704
:10484C0075AF00237B6002E07B6801337B607B6883
:10485C00952BF9DD00BF18463837BD4680BD00BF2B
:10486C000008014080B58EB000AF00237B6340E0B0
:10487C0002F092F9012002F0CDF902F08DF901203D
:10488C0002F0C8F902F088F901224021BC4802F07C
:10489C00BFFD00224FF40071B94802F0B9FD0122AE
:1048AC004FF48061B64802F0B3FD01224FF4006171
:1048BC00B34802F0ADFD01224FF48051B04802F034
:1048CC00A7FD00224FF40051AD4802F0A1FD0120DC
:1048DC0002F0A0F902F060F9012002F09BF902F05D
:1048EC005BF9012002F096F902F056F97B6B01336B
:1048FC007B637B6B952BBBDD00233B6363E002F09A
:10490C004BF9012002F086F902F046F9012002F081
:10491C0081F902F041F901224021994802F078FD19
:10492C0000224FF40071964802F072FD01224FF400
:10493C008061934802F06CFD01224FF400619048B5
:10494C0002F066FD01224FF480518D4802F060FDAB
:10495C0000224FF400518A4802F05AFD012002F067
:10496C0059F902F019F901228021854802F050FD15
:10497C0000224FF40071824802F04AFD01224FF4EC
:10498C0080617F4802F044FD01224FF400617C48B5
:10499C0002F03EFD01224FF48051794802F038FDBF
:1049AC0001224FF40051764802F032FD012002F052
:1049BC0031F902F0F1F8012002F02CF902F0ECF8D8
:1049CC003B6B01333B633B6B952B98DD0023FB6208
:1049DC0064E002F0E1F8012002F01CF902F0DCF8CE
:1049EC00012002F017F902F0D7F8012240216448A7
:1049FC0002F00EFD00224FF40071614802F008FD38
:104A0C0001224FF480615E4802F002FD01224FF456
:104A1C0000615B4802F0FCFC01224FF480515848C5
:104A2C0002F0F6FC00224FF40051554802F0F0FC65
:104A3C00012002F0EFF802F0AFF8012002F0EAF8E2
:104A4C0002F0AAF801224FF480714D4802F0E0FC0C
:104A5C0001224FF400714A4802F0DAFC00224FF4B4
:104A6C008061474802F0D4FC01224FF400614448B5
:104A7C0002F0CEFC01224FF48051414802F0C8FCF8
:104A8C0001224FF400513E4802F0C2FC012002F01A
:104A9C00C1F802F081F8FB6A0133FB62FB6A952BCB
:104AAC0097DD0023BB6264E002F076F8012002F08F
:104ABC00B1F802F071F8012002F0ACF802F06CF8D9
:104ACC00012240212E4802F0A3FC00224FF4007179
:104ADC002B4802F09DFC01224FF48061284802F023
:104AEC0097FC01224FF40061254802F091FC012251
:104AFC004FF48051224802F08BFC00224FF40051FD
:104B0C001F4802F085FC012002F084F802F044F802
:104B1C00012002F07FF802F03FF801224FF480717F
:104B2C00174802F075FC01224FF40071144802F092
:104B3C006FFC01224FF48061114802F069FC0022E5
:104B4C004FF400610E4802F063FC01224FF48051D7
:104B5C000B4802F05DFC01224FF40051084802F0B2
:104B6C0057FC012002F056F802F016F8BB6A01332C
:104B7C00BB62BB6A952B97DD00237B6267E000BFAD
:104B8C000008014002F008F8012002F043F802F09E
:104B9C0003F8012002F03EF801F0FEFF0122402153
:104BAC00BB4802F035FC00224FF40071B84802F00B
:104BBC002FFC01224FF48061B54802F029FC012240
:104BCC004FF40061B24802F023FC01224FF48051F3
:104BDC00AF4802F01DFC00224FF40051AC4802F02B
:104BEC0017FC012002F016F801F0D6FF012002F0AC
:104BFC0011F801F0D1FF01224FF48071A44802F0AA
:104C0C0007FC01224FF40071A14802F001FC0122C3
:104C1C004FF480619E4802F0FBFB01224FF40061CF
:104C2C009B4802F0F5FB00224FF48051984802F0AB
:104C3C00EFFB01224FF40051954802F0E9FB0120F3
:104C4C0001F0E8FF01F0A8FF7B6A01337B627B6A0D
:104C5C00952B97DD00233B6263E001F09DFF012063
:104C6C0001F0D8FF01F098FF012001F0D3FF01F013
:104C7C0093FF01224021864802F0CAFB00224FF428
:104C8C000071834802F0C4FB01224FF4806180481C
:104C9C0002F0BEFB01224FF400617D4802F0B8FB2C
:104CAC0001224FF480517A4802F0B2FB00224FF4FB
:104CBC000051774802F0ACFB012001F0ABFF01F092
:104CCC006BFF01228021724802F0A2FB01224FF4FB
:104CDC0000716F4802F09CFB01224FF480616C481C
:104CEC0002F096FB01224FF40061694802F090FB40
:104CFC0001224FF48051664802F08AFB00224FF4E7
:104D0C000051634802F084FB012001F083FF01F0A5
:104D1C0043FF012001F07EFF01F03EFF3B6A0133AF
:104D2C003B623B6A952B98DD0023FB6140E001F070
:104D3C0033FF012001F06EFF01F02EFF012001F086
:104D4C0069FF01F029FF01224021514802F060FB6C
:104D5C0000224FF400714E4802F05AFB01224FF42E
:104D6C0080614B4802F054FB01224FF4006148482B
:104D7C0002F04EFB01224FF48051454802F048FBF3
:104D8C0000224FF40051424802F042FB012001F096
:104D9C0041FF01F001FF012001F03CFF01F0FCFE9E
:104DAC00012001F037FF01F0F7FEFB690133FB61D5
:104DBC00FB69952BBBDD0023BB6163E001F0ECFECE
:104DCC00012001F027FF01F0E7FE012220213048ED
:104DDC0002F01EFB01224FF400712D4802F018FB6B
:104DEC0001224FF480612A4802F012FB01224FF499
:104DFC000061274802F00CFB01224FF4805124483B
:104E0C0002F006FB00224FF40051214802F000FB97
:104E1C00012001F0FFFE01F0BFFE012240211C48E1
:104E2C0002F0F6FA00224FF40071194802F0F0FA81
:104E3C0001224FF48061164802F0EAFA01224FF485
:104E4C000061134802F0E4FA01224FF4805110483B
:104E5C0002F0DEFA00224FF400510D4802F0D8FAAD
:104E6C00012001F0D7FE01F097FE012001F0D2FEE7
:104E7C0001F092FE012001F0CDFE01F08DFEBB6928
:104E8C000133BB61BB69952B98DD00237B6165E029
:104E9C000008014001F080FE01221021D74802F0E9
:104EAC00B7FA01224FF40071D44802F0B1FA012292
:104EBC004FF48061D14802F0ABFA01224FF400614B
:104ECC00CE4802F0A5FA00224FF48051CB4802F0F4
:104EDC009FFA01224FF40051C84802F099FA0120C0
:104EEC0001F098FE01F058FE012001F093FE01F054
:104EFC0053FE01224021C14802F08AFA00224FF4ED
:104F0C000071BE4802F084FA01224FF48061BB4864
:104F1C0002F07EFA01224FF40061B84802F078FAF0
:104F2C0001224FF48051B54802F072FA00224FF47E
:104F3C000051B24802F06CFA012001F06BFE01F056
:104F4C002BFE012001F066FE01F026FE012001F08F
:104F5C0061FE01F021FE7B6901337B617B69952B3E
:104F6C0098DD00233B6163E001F016FE0122102165
:104F7C00A24802F04DFA01224FF400719F4802F052
:104F8C0047FA01224FF480619C4802F041FA00225A
:104F9C004FF40061994802F03BFA01224FF4805122
:104FAC00964802F035FA01224FF40051934802F072
:104FBC002FFA012001F02EFE01F0EEFD012001F090
:104FCC0029FE01F0E9FD012240218C4802F020FA73
:104FDC0000224FF40071894802F01AFA01224FF4B2
:104FEC008061864802F014FA01224FF40061834874
:104FFC0002F00EFA01224FF48051804802F008FAB8
:10500C0000224FF400517D4802F002FA012001F019
:10501C0001FE01F0C1FD012001F0FCFD01F0BCFD21
:10502C00012001F0F7FD01F0B7FD3B6901333B6155
:10503C003B69952B98DD0023FB6063E001F0ACFD30
:10504C00012210216D4802F0E3F901224FF40071A6
:10505C006A4802F0DDF900224FF48061674802F0E3
:10506C00D7F901224FF40061644802F0D1F9012212
:10507C004FF48051614802F0CBF901224FF40051FA
:10508C005E4802F0C5F9012001F0C4FD01F084FD79
:10509C00012001F0BFFD01F07FFD012240215748A6
:1050AC0002F0B6F900224FF40071544802F0B0F946
:1050BC0001224FF48061514802F0AAF901224FF409
:1050CC0000614E4802F0A4F901224FF480514B4884
:1050DC0002F09EF900224FF40051484802F098F972
:1050EC00012001F097FD01F057FD012001F092FD28
:1050FC0001F052FD012001F08DFD01F04DFDFB682A
:10510C000133FB60FB68952B98DD0023BB6063E0EB
:10511C0001F042FD012001F07DFD01F03DFD012279
:10512C002021364802F074F900224FF40071334804
:10513C0002F06EF901224FF48061304802F068F9F8
:10514C0001224FF400612D4802F062F901224FF464
:10515C0080512A4802F05CF901224FF40051274893
:10516C0002F056F9012001F055FD01F015FD012268
:10517C004021224802F04CF900224FF400711F48E4
:10518C0002F046F901224FF480611C4802F040F90C
:10519C0001224FF40061194802F03AF901224FF450
:1051AC008051164802F034F900224FF40051134894
:1051BC0002F02EF9012001F02DFD01F0EDFC012093
:1051CC0001F028FD01F0E8FC012001F023FD01F0C5
:1051DC00E3FCBB680133BB60BB68952B98DD0023F7
:1051EC007B6002E07B6801337B607B68952BF9DD8B
:1051FC0000BF00BF3837BD4680BD00BF000801406E
:10520C0080B58EB000AF00237B6363E001F0C4FC7B
:10521C00012001F0FFFC01F0BFFC01222021BF485E
:10522C0002F0F6F801224FF40071BC4802F0F0F8DD
:10523C0001224FF48061B94802F0EAF801224FF4E0
:10524C000061B64802F0E4F801224FF48051B348F3
:10525C0002F0DEF800224FF40051B04802F0D8F80A
:10526C00012001F0D7FC01F097FC01224021AB4852
:10527C0002F0CEF800224FF40071A84802F0C8F8F2
:10528C0001224FF48061A54802F0C2F801224FF4CC
:10529C000061A24802F0BCF801224FF480519F48F3
:1052AC0002F0B6F801224FF400519C4802F0B0F81D
:1052BC00012001F0AFFC01F06FFC012001F0AAFC11
:1052CC0001F06AFC012001F0A5FC01F065FC7B6B90
:1052DC0001337B637B6B952B98DD00233B6386E06E
:1052EC0001F05AFC012001F095FC01F055FC012263
:1052FC0020218A4802F08CF801224FF40071874873
:10530C0002F086F801224FF48061844802F080F8A4
:10531C0001224FF40061814802F07AF801224FF427
:10532C0080517E4802F074F800224FF400517B4803
:10533C0002F06EF8012001F06DFC01F02DFC012251
:10534C004021764802F064F800224FF40071734853
:10535C0002F05EF801224FF48061704802F058F8B8
:10536C0001224FF400616D4802F052F801224FF413
:10537C0080516A4802F04CF801224FF40051674802
:10538C0002F046F8012001F045FC01F005FC012279
:10539C008021624802F03CF800224FF400715F4813
:1053AC0002F036F801224FF480615C4802F030F8CC
:1053BC0001224FF40061594802F02AF801224FF4FF
:1053CC008051564802F024F801224FF40051534802
:1053DC0002F01EF8012001F01DFC01F0DDFB0120A4
:1053EC0001F018FC01F0D8FB3B6B01333B633B6BCA
:1053FC00952B7FF775AF0023FB6287E001F0CCFBA8
:10540C00012001F007FC01F0C7FB012220214348D9
:10541C0001F0FEFF01224FF40071404801F0F8FF4B
:10542C0001224FF480613D4801F0F2FF01224FF45C
:10543C0000613A4801F0ECFF01224FF480513748EB
:10544C0001F0E6FF00224FF40051344801F0E0FF78
:10545C00012001F0DFFB01F09FFB012240212F48CE
:10546C0001F0D6FF00224FF400712C4801F0D0FF60
:10547C0001224FF48061294801F0CAFF01224FF448
:10548C000061264801F0C4FF01224FF480512348EB
:10549C0001F0BEFF01224FF40051204801F0B8FF8B
:1054AC00012001F0B7FB01F077FB012001F0B2FB0A
:1054BC0001F072FB01224FF48071184801F0A8FF33
:1054CC0001224FF40071154801F0A2FF00224FF4A5
:1054DC008061124801F09CFF01224FF400610F48DB
:1054EC0001F096FF01224FF480510C4801F090FF1F
:1054FC0001224FF40051094801F08AFF012001F00C
:10550C0089FB01F049FBFB6A0133FB62FB6A952BBB
:10551C007FF774AF0023BB628AE000BF0008014034
:10552C0001F03AFB012001F075FB01F035FB012283
:10553C002021D14801F06CFF01224FF40071CE48BC
:10554C0001F066FF01224FF48061CB4801F060FF4F
:10555C0001224FF40061C84801F05AFF01224FF4B8
:10556C008051C54801F054FF00224FF40051C2484D
:10557C0001F04EFF012001F04DFB01F00DFB01226B
:10558C004021BD4801F044FF00224FF40071BA489D
:10559C0001F03EFF01224FF48061B74801F038FF63
:1055AC0001224FF40061B44801F032FF01224FF4A4
:1055BC008051B14801F02CFF01224FF40051AE484C
:1055CC0001F026FF012001F025FB01F0E5FA012096
:1055DC0001F020FB01F0E0FA01224FF48071A648A3
:1055EC0001F016FF01224FF40071A34801F010FFE7
:1055FC0001224FF48061A04801F00AFF00224FF411
:10560C0000619D4801F004FF01224FF480519A483B
:10561C0001F0FEFE01224FF40051974801F0F8FE14
:10562C00012001F0F7FA01F0B7FABB6A0133BB6253
:10563C00BB6A952B7FF774AF00237B6287E001F088
:10564C00ABFA012001F0E6FA01F0A6FA01222021C2
:10565C00894801F0DDFE01224FF40071864801F00B
:10566C00D7FE01224FF48061834801F0D1FE012264
:10567C004FF40061804801F0CBFE01224FF48051C1
:10568C007D4801F0C5FE00224FF400517A4801F02C
:10569C00BFFE012001F0BEFA01F07EFA012240218A
:1056AC00754801F0B5FE00224FF40071724801F00C
:1056BC00AFFE01224FF480616F4801F0A9FE012278
:1056CC004FF400616C4801F0A3FE01224FF48051AD
:1056DC00694801F09DFE01224FF40051664801F02B
:1056EC0097FE012001F096FA01F056FA012001F024
:1056FC0091FA01F051FA01224FF480715E4801F0E9
:10570C0087FE01224FF400715B4801F081FE0122FB
:10571C004FF48061584801F07BFE01224FF4006188
:10572C00554801F075FE00224FF48051524801F0AB
:10573C006FFE01224FF400514F4801F069FE012029
:10574C0001F068FA01F028FA7B6A01337B627B6A0C
:10575C00952B7FF774AF00233B6286E001F01CFAB7
:10576C00012001F057FA01F017FA012220214248DA
:10577C0001F04EFE01224FF400713F4801F048FE4B
:10578C0001224FF480613C4801F042FE01224FF4AB
:10579C000061394801F03CFE01224FF4805136483B
:1057AC0001F036FE00224FF40051334801F030FE78
:1057BC00012001F02FFA01F0EFF9012240212E48CF
:1057CC0001F026FE00224FF400712B4801F020FE60
:1057DC0001224FF48061284801F01AFE01224FF497
:1057EC000061254801F014FE01224FF4805122483B
:1057FC0001F00EFE01224FF400511F4801F008FE8B
:10580C00012001F007FA01F0C7F9012280211A48A2
:10581C0001F0FEFD01224FF40071174801F0F8FD74
:10582C0001224FF48061144801F0F2FD01224FF483
:10583C000061114801F0ECFD01224FF480510E483B
:10584C0001F0E6FD00224FF400510B4801F0E0FDA1
:10585C00012001F0DFF901F09FF9012001F0DAF9E4
:10586C0001F09AF93B6A01333B623B6A952B7FF757
:10587C0075AF0023FB6165E00008014001F08CF975
:10588C00012001F0C7F901F087F901222021AC4871
:10589C0001F0BEFD01224FF40071A94801F0B8FDE2
:1058AC0001224FF48061A64801F0B2FD01224FF4B1
:1058BC000061A34801F0ACFD01224FF48051A048D7
:1058CC0001F0A6FD00224FF400519D4801F0A0FD0F
:1058DC00012001F09FF901F05FF901224021984865
:1058EC0001F096FD00224FF40071954801F090FDF7
:1058FC0001224FF48061924801F08AFD01224FF49D
:10590C0000618F4801F084FD01224FF480518C48D6
:10591C0001F07EFD00224FF40051894801F078FD22
:10592C00012001F077F901F037F9012001F072F94B
:10593C0001F032F9012001F06DF901F02DF9FB694C
:10594C000133FB61FB69952B98DD0023BB6163E0A0
:10595C0001F022F9012001F05DF901F01DF901229D
:10596C002021774801F054FD01224FF40071744856
:10597C0001F04EFD01224FF48061714801F048FDA9
:10598C0001224FF400616E4801F042FD01224FF4F8
:10599C0080516B4801F03CFD00224FF400516848E7
:1059AC0001F036FD012001F035F901F0F5F8012286
:1059BC004021634801F02CFD00224FF40071604837
:1059CC0001F026FD01224FF480615D4801F020FDBD
:1059DC0001224FF400615A4801F01AFD01224FF4E4
:1059EC008051574801F014FD01224FF400515448E6
:1059FC0001F00EFD012001F00DF901F0CDF80120B0
:105A0C0001F008F901F0C8F8012001F003F901F0E8
:105A1C00C3F8BB690133BB61BB69952B98DD0023CF
:105A2C007B6186E001F0B8F801221021444801F0B6
:105A3C00EFFC01224FF40071414801F0E9FC012216
:105A4C004FF480613E4801F0E3FC01224FF4006109
:105A5C003B4801F0DDFC00224FF48051384801F046
:105A6C00D7FC01224FF40051354801F0D1FC012044
:105A7C0001F0D0F801F090F801222021304801F01B
:105A8C00C7FC01224FF400712D4801F0C1FC01222A
:105A9C004FF480612A4801F0BBFC01224FF40061F5
:105AAC00274801F0B5FC01224FF48051244801F045
:105ABC00AFFC00224FF40051214801F0A9FC012059
:105ACC0001F0A8F801F068F8012240211C4801F00F
